{"contracts/TwoFactorAuth.sol":{"TwoFactorAuth":{"abi":[{"anonymous":false,"inputs":[{"indexed":false,"internalType":"address","name":"publicKey","type":"address"},{"indexed":false,"internalType":"uint256","name":"OTP","type":"uint256"}],"name":"OTPGenerated","type":"event"},{"anonymous":false,"inputs":[{"indexed":false,"internalType":"address","name":"publicKey","type":"address"}],"name":"UserAuthenticated","type":"event"},{"anonymous":false,"inputs":[{"indexed":false,"internalType":"string","name":"username","type":"string"},{"indexed":false,"internalType":"address","name":"publicKey","type":"address"}],"name":"UserRegistered","type":"event"},{"inputs":[{"internalType":"address","name":"_publicKey","type":"address"},{"internalType":"uint256","name":"_OTP","type":"uint256"}],"name":"authenticateUser","outputs":[],"stateMutability":"nonpayable","type":"function"},{"inputs":[{"internalType":"address","name":"_publicKey","type":"address"}],"name":"generateOTP","outputs":[],"stateMutability":"nonpayable","type":"function"},{"inputs":[{"internalType":"string","name":"_username","type":"string"},{"internalType":"address","name":"_publicKey","type":"address"},{"internalType":"uint256","name":"_seed","type":"uint256"}],"name":"registerUser","outputs":[],"stateMutability":"nonpayable","type":"function"}],"evm":{"bytecode":{"linkReferences":{},"object":"608060405234801561001057600080fd5b50610c9b806100206000396000f3fe608060405234801561001057600080fd5b50600436106100415760003560e01c80633b4abc32146100465780634e5db165146100625780637aa5290a1461007e575b600080fd5b610060600480360381019061005b919061069f565b61009a565b005b61007c600480360381019061007791906106c8565b6101e8565b005b61009860048036038101906100939190610704565b6103a4565b005b60008060008373ffffffffffffffffffffffffffffffffffffffff1673ffffffffffffffffffffffffffffffffffffffff1681526020019081526020016000209050600073ffffffffffffffffffffffffffffffffffffffff168160010160009054906101000a900473ffffffffffffffffffffffffffffffffffffffff1673ffffffffffffffffffffffffffffffffffffffff161415610170576040517f08c379a000000000000000000000000000000000000000000000000000000000815260040161016790610996565b60405180910390fd5b600061271061018c42846002015461051d90919063ffffffff16565b6101969190610b39565b90508082600301819055504282600401819055507f319edb03e3b686125d3ddef459974ff36e5f3d519b928f65c4764c7eab0f4fa083826040516101db9291906108dd565b60405180910390a1505050565b60008060008473ffffffffffffffffffffffffffffffffffffffff1673ffffffffffffffffffffffffffffffffffffffff1681526020019081526020016000209050600073ffffffffffffffffffffffffffffffffffffffff168160010160009054906101000a900473ffffffffffffffffffffffffffffffffffffffff1673ffffffffffffffffffffffffffffffffffffffff1614156102be576040517f08c379a00000000000000000000000000000000000000000000000000000000081526004016102b590610996565b60405180910390fd5b81816003015414610304576040517f08c379a00000000000000000000000000000000000000000000000000000000081526004016102fb90610976565b60405180910390fd5b61031c601e826004015461051d90919063ffffffff16565b42111561035e576040517f08c379a000000000000000000000000000000000000000000000000000000000815260040161035590610956565b60405180910390fd5b600081600301819055507fc33c48353ef54fd43cb788278ab804ec5fe708d0a0a7d9169563cdb83e0136278360405161039791906108c2565b60405180910390a1505050565b60008060008473ffffffffffffffffffffffffffffffffffffffff1673ffffffffffffffffffffffffffffffffffffffff1681526020019081526020016000209050600073ffffffffffffffffffffffffffffffffffffffff168160010160009054906101000a900473ffffffffffffffffffffffffffffffffffffffff1673ffffffffffffffffffffffffffffffffffffffff1614610479576040517f08c379a000000000000000000000000000000000000000000000000000000000815260040161047090610936565b60405180910390fd5b8381600001908051906020019061049192919061056a565b50828160010160006101000a81548173ffffffffffffffffffffffffffffffffffffffff021916908373ffffffffffffffffffffffffffffffffffffffff1602179055508181600201819055507f7f605d0ff47d2a070e456b69ce2a36041788910b64443c7f4c6d307993cade2c848460405161050f929190610906565b60405180910390a150505050565b6000818361052b9190610a33565b905082811015610564577f4e487b7100000000000000000000000000000000000000000000000000000000600052600160045260246000fd5b92915050565b82805461057690610b07565b90600052602060002090601f01602090048101928261059857600085556105df565b82601f106105b157805160ff19168380011785556105df565b828001600101855582156105df579182015b828111156105de5782518255916020019190600101906105c3565b5b5090506105ec91906105f0565b5090565b5b808211156106095760008160009055506001016105f1565b5090565b600061062061061b846109e7565b6109b6565b90508281526020810184848401111561063857600080fd5b610643848285610ac5565b509392505050565b60008135905061065a81610c37565b92915050565b600082601f83011261067157600080fd5b813561068184826020860161060d565b91505092915050565b60008135905061069981610c4e565b92915050565b6000602082840312156106b157600080fd5b60006106bf8482850161064b565b91505092915050565b600080604083850312156106db57600080fd5b60006106e98582860161064b565b92505060206106fa8582860161068a565b9150509250929050565b60008060006060848603121561071957600080fd5b600084013567ffffffffffffffff81111561073357600080fd5b61073f86828701610660565b93505060206107508682870161064b565b92505060406107618682870161068a565b9150509250925092565b61077481610a89565b82525050565b600061078582610a17565b61078f8185610a22565b935061079f818560208601610ad4565b6107a881610c26565b840191505092915050565b60006107c0601383610a22565b91507f5573657220616c726561647920657869737473000000000000000000000000006000830152602082019050919050565b6000610800600b83610a22565b91507f4f545020657870697265640000000000000000000000000000000000000000006000830152602082019050919050565b6000610840600b83610a22565b91507f496e76616c6964204f54500000000000000000000000000000000000000000006000830152602082019050919050565b6000610880601383610a22565b91507f5573657220646f6573206e6f74206578697374000000000000000000000000006000830152602082019050919050565b6108bc81610abb565b82525050565b60006020820190506108d7600083018461076b565b92915050565b60006040820190506108f2600083018561076b565b6108ff60208301846108b3565b9392505050565b60006040820190508181036000830152610920818561077a565b905061092f602083018461076b565b9392505050565b6000602082019050818103600083015261094f816107b3565b9050919050565b6000602082019050818103600083015261096f816107f3565b9050919050565b6000602082019050818103600083015261098f81610833565b9050919050565b600060208201905081810360008301526109af81610873565b9050919050565b6000604051905081810181811067ffffffffffffffff821117156109dd576109dc610bf7565b5b8060405250919050565b600067ffffffffffffffff821115610a0257610a01610bf7565b5b601f19601f8301169050602081019050919050565b600081519050919050565b600082825260208201905092915050565b6000610a3e82610abb565b9150610a4983610abb565b9250827fffffffffffffffffffffffffffffffffffffffffffffffffffffffffffffffff03821115610a7e57610a7d610b6a565b5b828201905092915050565b6000610a9482610a9b565b9050919050565b600073ffffffffffffffffffffffffffffffffffffffff82169050919050565b6000819050919050565b82818337600083830152505050565b60005b83811015610af2578082015181840152602081019050610ad7565b83811115610b01576000848401525b50505050565b60006002820490506001821680610b1f57607f821691505b60208210811415610b3357610b32610bc8565b5b50919050565b6000610b4482610abb565b9150610b4f83610abb565b925082610b5f57610b5e610b99565b5b828206905092915050565b7f4e487b7100000000000000000000000000000000000000000000000000000000600052601160045260246000fd5b7f4e487b7100000000000000000000000000000000000000000000000000000000600052601260045260246000fd5b7f4e487b7100000000000000000000000000000000000000000000000000000000600052602260045260246000fd5b7f4e487b7100000000000000000000000000000000000000000000000000000000600052604160045260246000fd5b6000601f19601f8301169050919050565b610c4081610a89565b8114610c4b57600080fd5b50565b610c5781610abb565b8114610c6257600080fd5b5056fea26469706673582212204e72b22a933bac347f3648a6ed438e3ad6003df4028d966f3d9d078efaa2014d64736f6c63430008000033","opcodes":"PUSH1 0x80 PUSH1 0x40 MSTORE CALLVALUE DUP1 ISZERO PUSH2 0x10 JUMPI PUSH1 0x0 DUP1 REVERT JUMPDEST POP PUSH2 0xC9B DUP1 PUSH2 0x20 PUSH1 0x0 CODECOPY PUSH1 0x0 RETURN INVALID PUSH1 0x80 PUSH1 0x40 MSTORE CALLVALUE DUP1 ISZERO PUSH2 0x10 JUMPI PUSH1 0x0 DUP1 REVERT JUMPDEST POP PUSH1 0x4 CALLDATASIZE LT PUSH2 0x41 JUMPI PUSH1 0x0 CALLDATALOAD PUSH1 0xE0 SHR DUP1 PUSH4 0x3B4ABC32 EQ PUSH2 0x46 JUMPI DUP1 PUSH4 0x4E5DB165 EQ PUSH2 0x62 JUMPI DUP1 PUSH4 0x7AA5290A EQ PUSH2 0x7E JUMPI JUMPDEST PUSH1 0x0 DUP1 REVERT JUMPDEST PUSH2 0x60 PUSH1 0x4 DUP1 CALLDATASIZE SUB DUP2 ADD SWAP1 PUSH2 0x5B SWAP2 SWAP1 PUSH2 0x69F JUMP JUMPDEST PUSH2 0x9A JUMP JUMPDEST STOP JUMPDEST PUSH2 0x7C PUSH1 0x4 DUP1 CALLDATASIZE SUB DUP2 ADD SWAP1 PUSH2 0x77 SWAP2 SWAP1 PUSH2 0x6C8 JUMP JUMPDEST PUSH2 0x1E8 JUMP JUMPDEST STOP JUMPDEST PUSH2 0x98 PUSH1 0x4 DUP1 CALLDATASIZE SUB DUP2 ADD SWAP1 PUSH2 0x93 SWAP2 SWAP1 PUSH2 0x704 JUMP JUMPDEST PUSH2 0x3A4 JUMP JUMPDEST STOP JUMPDEST PUSH1 0x0 DUP1 PUSH1 0x0 DUP4 PUSH20 0xFFFFFFFFFFFFFFFFFFFFFFFFFFFFFFFFFFFFFFFF AND PUSH20 0xFFFFFFFFFFFFFFFFFFFFFFFFFFFFFFFFFFFFFFFF AND DUP2 MSTORE PUSH1 0x20 ADD SWAP1 DUP2 MSTORE PUSH1 0x20 ADD PUSH1 0x0 KECCAK256 SWAP1 POP PUSH1 0x0 PUSH20 0xFFFFFFFFFFFFFFFFFFFFFFFFFFFFFFFFFFFFFFFF AND DUP2 PUSH1 0x1 ADD PUSH1 0x0 SWAP1 SLOAD SWAP1 PUSH2 0x100 EXP SWAP1 DIV PUSH20 0xFFFFFFFFFFFFFFFFFFFFFFFFFFFFFFFFFFFFFFFF AND PUSH20 0xFFFFFFFFFFFFFFFFFFFFFFFFFFFFFFFFFFFFFFFF AND EQ ISZERO PUSH2 0x170 JUMPI PUSH1 0x40 MLOAD PUSH32 0x8C379A000000000000000000000000000000000000000000000000000000000 DUP2 MSTORE PUSH1 0x4 ADD PUSH2 0x167 SWAP1 PUSH2 0x996 JUMP JUMPDEST PUSH1 0x40 MLOAD DUP1 SWAP2 SUB SWAP1 REVERT JUMPDEST PUSH1 0x0 PUSH2 0x2710 PUSH2 0x18C TIMESTAMP DUP5 PUSH1 0x2 ADD SLOAD PUSH2 0x51D SWAP1 SWAP2 SWAP1 PUSH4 0xFFFFFFFF AND JUMP JUMPDEST PUSH2 0x196 SWAP2 SWAP1 PUSH2 0xB39 JUMP JUMPDEST SWAP1 POP DUP1 DUP3 PUSH1 0x3 ADD DUP2 SWAP1 SSTORE POP TIMESTAMP DUP3 PUSH1 0x4 ADD DUP2 SWAP1 SSTORE POP PUSH32 0x319EDB03E3B686125D3DDEF459974FF36E5F3D519B928F65C4764C7EAB0F4FA0 DUP4 DUP3 PUSH1 0x40 MLOAD PUSH2 0x1DB SWAP3 SWAP2 SWAP1 PUSH2 0x8DD JUMP JUMPDEST PUSH1 0x40 MLOAD DUP1 SWAP2 SUB SWAP1 LOG1 POP POP POP JUMP JUMPDEST PUSH1 0x0 DUP1 PUSH1 0x0 DUP5 PUSH20 0xFFFFFFFFFFFFFFFFFFFFFFFFFFFFFFFFFFFFFFFF AND PUSH20 0xFFFFFFFFFFFFFFFFFFFFFFFFFFFFFFFFFFFFFFFF AND DUP2 MSTORE PUSH1 0x20 ADD SWAP1 DUP2 MSTORE PUSH1 0x20 ADD PUSH1 0x0 KECCAK256 SWAP1 POP PUSH1 0x0 PUSH20 0xFFFFFFFFFFFFFFFFFFFFFFFFFFFFFFFFFFFFFFFF AND DUP2 PUSH1 0x1 ADD PUSH1 0x0 SWAP1 SLOAD SWAP1 PUSH2 0x100 EXP SWAP1 DIV PUSH20 0xFFFFFFFFFFFFFFFFFFFFFFFFFFFFFFFFFFFFFFFF AND PUSH20 0xFFFFFFFFFFFFFFFFFFFFFFFFFFFFFFFFFFFFFFFF AND EQ ISZERO PUSH2 0x2BE JUMPI PUSH1 0x40 MLOAD PUSH32 0x8C379A000000000000000000000000000000000000000000000000000000000 DUP2 MSTORE PUSH1 0x4 ADD PUSH2 0x2B5 SWAP1 PUSH2 0x996 JUMP JUMPDEST PUSH1 0x40 MLOAD DUP1 SWAP2 SUB SWAP1 REVERT JUMPDEST DUP2 DUP2 PUSH1 0x3 ADD SLOAD EQ PUSH2 0x304 JUMPI PUSH1 0x40 MLOAD PUSH32 0x8C379A000000000000000000000000000000000000000000000000000000000 DUP2 MSTORE PUSH1 0x4 ADD PUSH2 0x2FB SWAP1 PUSH2 0x976 JUMP JUMPDEST PUSH1 0x40 MLOAD DUP1 SWAP2 SUB SWAP1 REVERT JUMPDEST PUSH2 0x31C PUSH1 0x1E DUP3 PUSH1 0x4 ADD SLOAD PUSH2 0x51D SWAP1 SWAP2 SWAP1 PUSH4 0xFFFFFFFF AND JUMP JUMPDEST TIMESTAMP GT ISZERO PUSH2 0x35E JUMPI PUSH1 0x40 MLOAD PUSH32 0x8C379A000000000000000000000000000000000000000000000000000000000 DUP2 MSTORE PUSH1 0x4 ADD PUSH2 0x355 SWAP1 PUSH2 0x956 JUMP JUMPDEST PUSH1 0x40 MLOAD DUP1 SWAP2 SUB SWAP1 REVERT JUMPDEST PUSH1 0x0 DUP2 PUSH1 0x3 ADD DUP2 SWAP1 SSTORE POP PUSH32 0xC33C48353EF54FD43CB788278AB804EC5FE708D0A0A7D9169563CDB83E013627 DUP4 PUSH1 0x40 MLOAD PUSH2 0x397 SWAP2 SWAP1 PUSH2 0x8C2 JUMP JUMPDEST PUSH1 0x40 MLOAD DUP1 SWAP2 SUB SWAP1 LOG1 POP POP POP JUMP JUMPDEST PUSH1 0x0 DUP1 PUSH1 0x0 DUP5 PUSH20 0xFFFFFFFFFFFFFFFFFFFFFFFFFFFFFFFFFFFFFFFF AND PUSH20 0xFFFFFFFFFFFFFFFFFFFFFFFFFFFFFFFFFFFFFFFF AND DUP2 MSTORE PUSH1 0x20 ADD SWAP1 DUP2 MSTORE PUSH1 0x20 ADD PUSH1 0x0 KECCAK256 SWAP1 POP PUSH1 0x0 PUSH20 0xFFFFFFFFFFFFFFFFFFFFFFFFFFFFFFFFFFFFFFFF AND DUP2 PUSH1 0x1 ADD PUSH1 0x0 SWAP1 SLOAD SWAP1 PUSH2 0x100 EXP SWAP1 DIV PUSH20 0xFFFFFFFFFFFFFFFFFFFFFFFFFFFFFFFFFFFFFFFF AND PUSH20 0xFFFFFFFFFFFFFFFFFFFFFFFFFFFFFFFFFFFFFFFF AND EQ PUSH2 0x479 JUMPI PUSH1 0x40 MLOAD PUSH32 0x8C379A000000000000000000000000000000000000000000000000000000000 DUP2 MSTORE PUSH1 0x4 ADD PUSH2 0x470 SWAP1 PUSH2 0x936 JUMP JUMPDEST PUSH1 0x40 MLOAD DUP1 SWAP2 SUB SWAP1 REVERT JUMPDEST DUP4 DUP2 PUSH1 0x0 ADD SWAP1 DUP1 MLOAD SWAP1 PUSH1 0x20 ADD SWAP1 PUSH2 0x491 SWAP3 SWAP2 SWAP1 PUSH2 0x56A JUMP JUMPDEST POP DUP3 DUP2 PUSH1 0x1 ADD PUSH1 0x0 PUSH2 0x100 EXP DUP2 SLOAD DUP2 PUSH20 0xFFFFFFFFFFFFFFFFFFFFFFFFFFFFFFFFFFFFFFFF MUL NOT AND SWAP1 DUP4 PUSH20 0xFFFFFFFFFFFFFFFFFFFFFFFFFFFFFFFFFFFFFFFF AND MUL OR SWAP1 SSTORE POP DUP2 DUP2 PUSH1 0x2 ADD DUP2 SWAP1 SSTORE POP PUSH32 0x7F605D0FF47D2A070E456B69CE2A36041788910B64443C7F4C6D307993CADE2C DUP5 DUP5 PUSH1 0x40 MLOAD PUSH2 0x50F SWAP3 SWAP2 SWAP1 PUSH2 0x906 JUMP JUMPDEST PUSH1 0x40 MLOAD DUP1 SWAP2 SUB SWAP1 LOG1 POP POP POP POP JUMP JUMPDEST PUSH1 0x0 DUP2 DUP4 PUSH2 0x52B SWAP2 SWAP1 PUSH2 0xA33 JUMP JUMPDEST SWAP1 POP DUP3 DUP2 LT ISZERO PUSH2 0x564 JUMPI PUSH32 0x4E487B7100000000000000000000000000000000000000000000000000000000 PUSH1 0x0 MSTORE PUSH1 0x1 PUSH1 0x4 MSTORE PUSH1 0x24 PUSH1 0x0 REVERT JUMPDEST SWAP3 SWAP2 POP POP JUMP JUMPDEST DUP3 DUP1 SLOAD PUSH2 0x576 SWAP1 PUSH2 0xB07 JUMP JUMPDEST SWAP1 PUSH1 0x0 MSTORE PUSH1 0x20 PUSH1 0x0 KECCAK256 SWAP1 PUSH1 0x1F ADD PUSH1 0x20 SWAP1 DIV DUP2 ADD SWAP3 DUP3 PUSH2 0x598 JUMPI PUSH1 0x0 DUP6 SSTORE PUSH2 0x5DF JUMP JUMPDEST DUP3 PUSH1 0x1F LT PUSH2 0x5B1 JUMPI DUP1 MLOAD PUSH1 0xFF NOT AND DUP4 DUP1 ADD OR DUP6 SSTORE PUSH2 0x5DF JUMP JUMPDEST DUP3 DUP1 ADD PUSH1 0x1 ADD DUP6 SSTORE DUP3 ISZERO PUSH2 0x5DF JUMPI SWAP2 DUP3 ADD JUMPDEST DUP3 DUP2 GT ISZERO PUSH2 0x5DE JUMPI DUP3 MLOAD DUP3 SSTORE SWAP2 PUSH1 0x20 ADD SWAP2 SWAP1 PUSH1 0x1 ADD SWAP1 PUSH2 0x5C3 JUMP JUMPDEST JUMPDEST POP SWAP1 POP PUSH2 0x5EC SWAP2 SWAP1 PUSH2 0x5F0 JUMP JUMPDEST POP SWAP1 JUMP JUMPDEST JUMPDEST DUP1 DUP3 GT ISZERO PUSH2 0x609 JUMPI PUSH1 0x0 DUP2 PUSH1 0x0 SWAP1 SSTORE POP PUSH1 0x1 ADD PUSH2 0x5F1 JUMP JUMPDEST POP SWAP1 JUMP JUMPDEST PUSH1 0x0 PUSH2 0x620 PUSH2 0x61B DUP5 PUSH2 0x9E7 JUMP JUMPDEST PUSH2 0x9B6 JUMP JUMPDEST SWAP1 POP DUP3 DUP2 MSTORE PUSH1 0x20 DUP2 ADD DUP5 DUP5 DUP5 ADD GT ISZERO PUSH2 0x638 JUMPI PUSH1 0x0 DUP1 REVERT JUMPDEST PUSH2 0x643 DUP5 DUP3 DUP6 PUSH2 0xAC5 JUMP JUMPDEST POP SWAP4 SWAP3 POP POP POP JUMP JUMPDEST PUSH1 0x0 DUP2 CALLDATALOAD SWAP1 POP PUSH2 0x65A DUP2 PUSH2 0xC37 JUMP JUMPDEST SWAP3 SWAP2 POP POP JUMP JUMPDEST PUSH1 0x0 DUP3 PUSH1 0x1F DUP4 ADD SLT PUSH2 0x671 JUMPI PUSH1 0x0 DUP1 REVERT JUMPDEST DUP2 CALLDATALOAD PUSH2 0x681 DUP5 DUP3 PUSH1 0x20 DUP7 ADD PUSH2 0x60D JUMP JUMPDEST SWAP2 POP POP SWAP3 SWAP2 POP POP JUMP JUMPDEST PUSH1 0x0 DUP2 CALLDATALOAD SWAP1 POP PUSH2 0x699 DUP2 PUSH2 0xC4E JUMP JUMPDEST SWAP3 SWAP2 POP POP JUMP JUMPDEST PUSH1 0x0 PUSH1 0x20 DUP3 DUP5 SUB SLT ISZERO PUSH2 0x6B1 JUMPI PUSH1 0x0 DUP1 REVERT JUMPDEST PUSH1 0x0 PUSH2 0x6BF DUP5 DUP3 DUP6 ADD PUSH2 0x64B JUMP JUMPDEST SWAP2 POP POP SWAP3 SWAP2 POP POP JUMP JUMPDEST PUSH1 0x0 DUP1 PUSH1 0x40 DUP4 DUP6 SUB SLT ISZERO PUSH2 0x6DB JUMPI PUSH1 0x0 DUP1 REVERT JUMPDEST PUSH1 0x0 PUSH2 0x6E9 DUP6 DUP3 DUP7 ADD PUSH2 0x64B JUMP JUMPDEST SWAP3 POP POP PUSH1 0x20 PUSH2 0x6FA DUP6 DUP3 DUP7 ADD PUSH2 0x68A JUMP JUMPDEST SWAP2 POP POP SWAP3 POP SWAP3 SWAP1 POP JUMP JUMPDEST PUSH1 0x0 DUP1 PUSH1 0x0 PUSH1 0x60 DUP5 DUP7 SUB SLT ISZERO PUSH2 0x719 JUMPI PUSH1 0x0 DUP1 REVERT JUMPDEST PUSH1 0x0 DUP5 ADD CALLDATALOAD PUSH8 0xFFFFFFFFFFFFFFFF DUP2 GT ISZERO PUSH2 0x733 JUMPI PUSH1 0x0 DUP1 REVERT JUMPDEST PUSH2 0x73F DUP7 DUP3 DUP8 ADD PUSH2 0x660 JUMP JUMPDEST SWAP4 POP POP PUSH1 0x20 PUSH2 0x750 DUP7 DUP3 DUP8 ADD PUSH2 0x64B JUMP JUMPDEST SWAP3 POP POP PUSH1 0x40 PUSH2 0x761 DUP7 DUP3 DUP8 ADD PUSH2 0x68A JUMP JUMPDEST SWAP2 POP POP SWAP3 POP SWAP3 POP SWAP3 JUMP JUMPDEST PUSH2 0x774 DUP2 PUSH2 0xA89 JUMP JUMPDEST DUP3 MSTORE POP POP JUMP JUMPDEST PUSH1 0x0 PUSH2 0x785 DUP3 PUSH2 0xA17 JUMP JUMPDEST PUSH2 0x78F DUP2 DUP6 PUSH2 0xA22 JUMP JUMPDEST SWAP4 POP PUSH2 0x79F DUP2 DUP6 PUSH1 0x20 DUP7 ADD PUSH2 0xAD4 JUMP JUMPDEST PUSH2 0x7A8 DUP2 PUSH2 0xC26 JUMP JUMPDEST DUP5 ADD SWAP2 POP POP SWAP3 SWAP2 POP POP JUMP JUMPDEST PUSH1 0x0 PUSH2 0x7C0 PUSH1 0x13 DUP4 PUSH2 0xA22 JUMP JUMPDEST SWAP2 POP PUSH32 0x5573657220616C72656164792065786973747300000000000000000000000000 PUSH1 0x0 DUP4 ADD MSTORE PUSH1 0x20 DUP3 ADD SWAP1 POP SWAP2 SWAP1 POP JUMP JUMPDEST PUSH1 0x0 PUSH2 0x800 PUSH1 0xB DUP4 PUSH2 0xA22 JUMP JUMPDEST SWAP2 POP PUSH32 0x4F54502065787069726564000000000000000000000000000000000000000000 PUSH1 0x0 DUP4 ADD MSTORE PUSH1 0x20 DUP3 ADD SWAP1 POP SWAP2 SWAP1 POP JUMP JUMPDEST PUSH1 0x0 PUSH2 0x840 PUSH1 0xB DUP4 PUSH2 0xA22 JUMP JUMPDEST SWAP2 POP PUSH32 0x496E76616C6964204F5450000000000000000000000000000000000000000000 PUSH1 0x0 DUP4 ADD MSTORE PUSH1 0x20 DUP3 ADD SWAP1 POP SWAP2 SWAP1 POP JUMP JUMPDEST PUSH1 0x0 PUSH2 0x880 PUSH1 0x13 DUP4 PUSH2 0xA22 JUMP JUMPDEST SWAP2 POP PUSH32 0x5573657220646F6573206E6F7420657869737400000000000000000000000000 PUSH1 0x0 DUP4 ADD MSTORE PUSH1 0x20 DUP3 ADD SWAP1 POP SWAP2 SWAP1 POP JUMP JUMPDEST PUSH2 0x8BC DUP2 PUSH2 0xABB JUMP JUMPDEST DUP3 MSTORE POP POP JUMP JUMPDEST PUSH1 0x0 PUSH1 0x20 DUP3 ADD SWAP1 POP PUSH2 0x8D7 PUSH1 0x0 DUP4 ADD DUP5 PUSH2 0x76B JUMP JUMPDEST SWAP3 SWAP2 POP POP JUMP JUMPDEST PUSH1 0x0 PUSH1 0x40 DUP3 ADD SWAP1 POP PUSH2 0x8F2 PUSH1 0x0 DUP4 ADD DUP6 PUSH2 0x76B JUMP JUMPDEST PUSH2 0x8FF PUSH1 0x20 DUP4 ADD DUP5 PUSH2 0x8B3 JUMP JUMPDEST SWAP4 SWAP3 POP POP POP JUMP JUMPDEST PUSH1 0x0 PUSH1 0x40 DUP3 ADD SWAP1 POP DUP2 DUP2 SUB PUSH1 0x0 DUP4 ADD MSTORE PUSH2 0x920 DUP2 DUP6 PUSH2 0x77A JUMP JUMPDEST SWAP1 POP PUSH2 0x92F PUSH1 0x20 DUP4 ADD DUP5 PUSH2 0x76B JUMP JUMPDEST SWAP4 SWAP3 POP POP POP JUMP JUMPDEST PUSH1 0x0 PUSH1 0x20 DUP3 ADD SWAP1 POP DUP2 DUP2 SUB PUSH1 0x0 DUP4 ADD MSTORE PUSH2 0x94F DUP2 PUSH2 0x7B3 JUMP JUMPDEST SWAP1 POP SWAP2 SWAP1 POP JUMP JUMPDEST PUSH1 0x0 PUSH1 0x20 DUP3 ADD SWAP1 POP DUP2 DUP2 SUB PUSH1 0x0 DUP4 ADD MSTORE PUSH2 0x96F DUP2 PUSH2 0x7F3 JUMP JUMPDEST SWAP1 POP SWAP2 SWAP1 POP JUMP JUMPDEST PUSH1 0x0 PUSH1 0x20 DUP3 ADD SWAP1 POP DUP2 DUP2 SUB PUSH1 0x0 DUP4 ADD MSTORE PUSH2 0x98F DUP2 PUSH2 0x833 JUMP JUMPDEST SWAP1 POP SWAP2 SWAP1 POP JUMP JUMPDEST PUSH1 0x0 PUSH1 0x20 DUP3 ADD SWAP1 POP DUP2 DUP2 SUB PUSH1 0x0 DUP4 ADD MSTORE PUSH2 0x9AF DUP2 PUSH2 0x873 JUMP JUMPDEST SWAP1 POP SWAP2 SWAP1 POP JUMP JUMPDEST PUSH1 0x0 PUSH1 0x40 MLOAD SWAP1 POP DUP2 DUP2 ADD DUP2 DUP2 LT PUSH8 0xFFFFFFFFFFFFFFFF DUP3 GT OR ISZERO PUSH2 0x9DD JUMPI PUSH2 0x9DC PUSH2 0xBF7 JUMP JUMPDEST JUMPDEST DUP1 PUSH1 0x40 MSTORE POP SWAP2 SWAP1 POP JUMP JUMPDEST PUSH1 0x0 PUSH8 0xFFFFFFFFFFFFFFFF DUP3 GT ISZERO PUSH2 0xA02 JUMPI PUSH2 0xA01 PUSH2 0xBF7 JUMP JUMPDEST JUMPDEST PUSH1 0x1F NOT PUSH1 0x1F DUP4 ADD AND SWAP1 POP PUSH1 0x20 DUP2 ADD SWAP1 POP SWAP2 SWAP1 POP JUMP JUMPDEST PUSH1 0x0 DUP2 MLOAD SWAP1 POP SWAP2 SWAP1 POP JUMP JUMPDEST PUSH1 0x0 DUP3 DUP3 MSTORE PUSH1 0x20 DUP3 ADD SWAP1 POP SWAP3 SWAP2 POP POP JUMP JUMPDEST PUSH1 0x0 PUSH2 0xA3E DUP3 PUSH2 0xABB JUMP JUMPDEST SWAP2 POP PUSH2 0xA49 DUP4 PUSH2 0xABB JUMP JUMPDEST SWAP3 POP DUP3 PUSH32 0xFFFFFFFFFFFFFFFFFFFFFFFFFFFFFFFFFFFFFFFFFFFFFFFFFFFFFFFFFFFFFFFF SUB DUP3 GT ISZERO PUSH2 0xA7E JUMPI PUSH2 0xA7D PUSH2 0xB6A JUMP JUMPDEST JUMPDEST DUP3 DUP3 ADD SWAP1 POP SWAP3 SWAP2 POP POP JUMP JUMPDEST PUSH1 0x0 PUSH2 0xA94 DUP3 PUSH2 0xA9B JUMP JUMPDEST SWAP1 POP SWAP2 SWAP1 POP JUMP JUMPDEST PUSH1 0x0 PUSH20 0xFFFFFFFFFFFFFFFFFFFFFFFFFFFFFFFFFFFFFFFF DUP3 AND SWAP1 POP SWAP2 SWAP1 POP JUMP JUMPDEST PUSH1 0x0 DUP2 SWAP1 POP SWAP2 SWAP1 POP JUMP JUMPDEST DUP3 DUP2 DUP4 CALLDATACOPY PUSH1 0x0 DUP4 DUP4 ADD MSTORE POP POP POP JUMP JUMPDEST PUSH1 0x0 JUMPDEST DUP4 DUP2 LT ISZERO PUSH2 0xAF2 JUMPI DUP1 DUP3 ADD MLOAD DUP2 DUP5 ADD MSTORE PUSH1 0x20 DUP2 ADD SWAP1 POP PUSH2 0xAD7 JUMP JUMPDEST DUP4 DUP2 GT ISZERO PUSH2 0xB01 JUMPI PUSH1 0x0 DUP5 DUP5 ADD MSTORE JUMPDEST POP POP POP POP JUMP JUMPDEST PUSH1 0x0 PUSH1 0x2 DUP3 DIV SWAP1 POP PUSH1 0x1 DUP3 AND DUP1 PUSH2 0xB1F JUMPI PUSH1 0x7F DUP3 AND SWAP2 POP JUMPDEST PUSH1 0x20 DUP3 LT DUP2 EQ ISZERO PUSH2 0xB33 JUMPI PUSH2 0xB32 PUSH2 0xBC8 JUMP JUMPDEST JUMPDEST POP SWAP2 SWAP1 POP JUMP JUMPDEST PUSH1 0x0 PUSH2 0xB44 DUP3 PUSH2 0xABB JUMP JUMPDEST SWAP2 POP PUSH2 0xB4F DUP4 PUSH2 0xABB JUMP JUMPDEST SWAP3 POP DUP3 PUSH2 0xB5F JUMPI PUSH2 0xB5E PUSH2 0xB99 JUMP JUMPDEST JUMPDEST DUP3 DUP3 MOD SWAP1 POP SWAP3 SWAP2 POP POP JUMP JUMPDEST PUSH32 0x4E487B7100000000000000000000000000000000000000000000000000000000 PUSH1 0x0 MSTORE PUSH1 0x11 PUSH1 0x4 MSTORE PUSH1 0x24 PUSH1 0x0 REVERT JUMPDEST PUSH32 0x4E487B7100000000000000000000000000000000000000000000000000000000 PUSH1 0x0 MSTORE PUSH1 0x12 PUSH1 0x4 MSTORE PUSH1 0x24 PUSH1 0x0 REVERT JUMPDEST PUSH32 0x4E487B7100000000000000000000000000000000000000000000000000000000 PUSH1 0x0 MSTORE PUSH1 0x22 PUSH1 0x4 MSTORE PUSH1 0x24 PUSH1 0x0 REVERT JUMPDEST PUSH32 0x4E487B7100000000000000000000000000000000000000000000000000000000 PUSH1 0x0 MSTORE PUSH1 0x41 PUSH1 0x4 MSTORE PUSH1 0x24 PUSH1 0x0 REVERT JUMPDEST PUSH1 0x0 PUSH1 0x1F NOT PUSH1 0x1F DUP4 ADD AND SWAP1 POP SWAP2 SWAP1 POP JUMP JUMPDEST PUSH2 0xC40 DUP2 PUSH2 0xA89 JUMP JUMPDEST DUP2 EQ PUSH2 0xC4B JUMPI PUSH1 0x0 DUP1 REVERT JUMPDEST POP JUMP JUMPDEST PUSH2 0xC57 DUP2 PUSH2 0xABB JUMP JUMPDEST DUP2 EQ PUSH2 0xC62 JUMPI PUSH1 0x0 DUP1 REVERT JUMPDEST POP JUMP INVALID LOG2 PUSH5 0x6970667358 0x22 SLT KECCAK256 0x4E PUSH19 0xB22A933BAC347F3648A6ED438E3AD6003DF402 DUP14 SWAP7 PUSH16 0x3D9D078EFAA2014D64736F6C63430008 STOP STOP CALLER "},"methodIdentifiers":{"authenticateUser(address,uint256)":"4e5db165","generateOTP(address)":"3b4abc32","registerUser(string,address,uint256)":"7aa5290a"}}}}}