{
  "_format": "hh-sol-artifact-1",
  "contractName": "TwoFactorAuth",
  "sourceName": "contracts/TwoFactorAuth.sol",
  "abi": [
    {
      "anonymous": false,
      "inputs": [
        {
          "indexed": false,
          "internalType": "address",
          "name": "publicKey",
          "type": "address"
        },
        {
          "indexed": false,
          "internalType": "uint256",
          "name": "OTP",
          "type": "uint256"
        }
      ],
      "name": "OTPGenerated",
      "type": "event"
    },
    {
      "anonymous": false,
      "inputs": [
        {
          "indexed": false,
          "internalType": "address",
          "name": "publicKey",
          "type": "address"
        }
      ],
      "name": "UserAuthenticated",
      "type": "event"
    },
    {
      "anonymous": false,
      "inputs": [
        {
          "indexed": false,
          "internalType": "string",
          "name": "username",
          "type": "string"
        },
        {
          "indexed": false,
          "internalType": "address",
          "name": "publicKey",
          "type": "address"
        }
      ],
      "name": "UserRegistered",
      "type": "event"
    },
    {
      "inputs": [
        {
          "internalType": "address",
          "name": "_publicKey",
          "type": "address"
        },
        {
          "internalType": "uint256",
          "name": "_OTP",
          "type": "uint256"
        }
      ],
      "name": "authenticateUser",
      "outputs": [],
      "stateMutability": "nonpayable",
      "type": "function"
    },
    {
      "inputs": [
        {
          "internalType": "address",
          "name": "_publicKey",
          "type": "address"
        }
      ],
      "name": "generateOTP",
      "outputs": [],
      "stateMutability": "nonpayable",
      "type": "function"
    },
    {
      "inputs": [
        {
          "internalType": "string",
          "name": "_username",
          "type": "string"
        },
        {
          "internalType": "address",
          "name": "_publicKey",
          "type": "address"
        },
        {
          "internalType": "uint256",
          "name": "_seed",
          "type": "uint256"
        }
      ],
      "name": "registerUser",
      "outputs": [],
      "stateMutability": "nonpayable",
      "type": "function"
    }
  ],
  "bytecode": "0x608060405234801561001057600080fd5b50610c9b806100206000396000f3fe608060405234801561001057600080fd5b50600436106100415760003560e01c80633b4abc32146100465780634e5db165146100625780637aa5290a1461007e575b600080fd5b610060600480360381019061005b919061069f565b61009a565b005b61007c600480360381019061007791906106c8565b6101e8565b005b61009860048036038101906100939190610704565b6103a4565b005b60008060008373ffffffffffffffffffffffffffffffffffffffff1673ffffffffffffffffffffffffffffffffffffffff1681526020019081526020016000209050600073ffffffffffffffffffffffffffffffffffffffff168160010160009054906101000a900473ffffffffffffffffffffffffffffffffffffffff1673ffffffffffffffffffffffffffffffffffffffff161415610170576040517f08c379a000000000000000000000000000000000000000000000000000000000815260040161016790610996565b60405180910390fd5b600061271061018c42846002015461051d90919063ffffffff16565b6101969190610b39565b90508082600301819055504282600401819055507f319edb03e3b686125d3ddef459974ff36e5f3d519b928f65c4764c7eab0f4fa083826040516101db9291906108dd565b60405180910390a1505050565b60008060008473ffffffffffffffffffffffffffffffffffffffff1673ffffffffffffffffffffffffffffffffffffffff1681526020019081526020016000209050600073ffffffffffffffffffffffffffffffffffffffff168160010160009054906101000a900473ffffffffffffffffffffffffffffffffffffffff1673ffffffffffffffffffffffffffffffffffffffff1614156102be576040517f08c379a00000000000000000000000000000000000000000000000000000000081526004016102b590610996565b60405180910390fd5b81816003015414610304576040517f08c379a00000000000000000000000000000000000000000000000000000000081526004016102fb90610976565b60405180910390fd5b61031c6050826004015461051d90919063ffffffff16565b42111561035e576040517f08c379a000000000000000000000000000000000000000000000000000000000815260040161035590610956565b60405180910390fd5b600081600301819055507fc33c48353ef54fd43cb788278ab804ec5fe708d0a0a7d9169563cdb83e0136278360405161039791906108c2565b60405180910390a1505050565b60008060008473ffffffffffffffffffffffffffffffffffffffff1673ffffffffffffffffffffffffffffffffffffffff1681526020019081526020016000209050600073ffffffffffffffffffffffffffffffffffffffff168160010160009054906101000a900473ffffffffffffffffffffffffffffffffffffffff1673ffffffffffffffffffffffffffffffffffffffff1614610479576040517f08c379a000000000000000000000000000000000000000000000000000000000815260040161047090610936565b60405180910390fd5b8381600001908051906020019061049192919061056a565b50828160010160006101000a81548173ffffffffffffffffffffffffffffffffffffffff021916908373ffffffffffffffffffffffffffffffffffffffff1602179055508181600201819055507f7f605d0ff47d2a070e456b69ce2a36041788910b64443c7f4c6d307993cade2c848460405161050f929190610906565b60405180910390a150505050565b6000818361052b9190610a33565b905082811015610564577f4e487b7100000000000000000000000000000000000000000000000000000000600052600160045260246000fd5b92915050565b82805461057690610b07565b90600052602060002090601f01602090048101928261059857600085556105df565b82601f106105b157805160ff19168380011785556105df565b828001600101855582156105df579182015b828111156105de5782518255916020019190600101906105c3565b5b5090506105ec91906105f0565b5090565b5b808211156106095760008160009055506001016105f1565b5090565b600061062061061b846109e7565b6109b6565b90508281526020810184848401111561063857600080fd5b610643848285610ac5565b509392505050565b60008135905061065a81610c37565b92915050565b600082601f83011261067157600080fd5b813561068184826020860161060d565b91505092915050565b60008135905061069981610c4e565b92915050565b6000602082840312156106b157600080fd5b60006106bf8482850161064b565b91505092915050565b600080604083850312156106db57600080fd5b60006106e98582860161064b565b92505060206106fa8582860161068a565b9150509250929050565b60008060006060848603121561071957600080fd5b600084013567ffffffffffffffff81111561073357600080fd5b61073f86828701610660565b93505060206107508682870161064b565b92505060406107618682870161068a565b9150509250925092565b61077481610a89565b82525050565b600061078582610a17565b61078f8185610a22565b935061079f818560208601610ad4565b6107a881610c26565b840191505092915050565b60006107c0601383610a22565b91507f5573657220616c726561647920657869737473000000000000000000000000006000830152602082019050919050565b6000610800600b83610a22565b91507f4f545020657870697265640000000000000000000000000000000000000000006000830152602082019050919050565b6000610840600b83610a22565b91507f496e76616c6964204f54500000000000000000000000000000000000000000006000830152602082019050919050565b6000610880601383610a22565b91507f5573657220646f6573206e6f74206578697374000000000000000000000000006000830152602082019050919050565b6108bc81610abb565b82525050565b60006020820190506108d7600083018461076b565b92915050565b60006040820190506108f2600083018561076b565b6108ff60208301846108b3565b9392505050565b60006040820190508181036000830152610920818561077a565b905061092f602083018461076b565b9392505050565b6000602082019050818103600083015261094f816107b3565b9050919050565b6000602082019050818103600083015261096f816107f3565b9050919050565b6000602082019050818103600083015261098f81610833565b9050919050565b600060208201905081810360008301526109af81610873565b9050919050565b6000604051905081810181811067ffffffffffffffff821117156109dd576109dc610bf7565b5b8060405250919050565b600067ffffffffffffffff821115610a0257610a01610bf7565b5b601f19601f8301169050602081019050919050565b600081519050919050565b600082825260208201905092915050565b6000610a3e82610abb565b9150610a4983610abb565b9250827fffffffffffffffffffffffffffffffffffffffffffffffffffffffffffffffff03821115610a7e57610a7d610b6a565b5b828201905092915050565b6000610a9482610a9b565b9050919050565b600073ffffffffffffffffffffffffffffffffffffffff82169050919050565b6000819050919050565b82818337600083830152505050565b60005b83811015610af2578082015181840152602081019050610ad7565b83811115610b01576000848401525b50505050565b60006002820490506001821680610b1f57607f821691505b60208210811415610b3357610b32610bc8565b5b50919050565b6000610b4482610abb565b9150610b4f83610abb565b925082610b5f57610b5e610b99565b5b828206905092915050565b7f4e487b7100000000000000000000000000000000000000000000000000000000600052601160045260246000fd5b7f4e487b7100000000000000000000000000000000000000000000000000000000600052601260045260246000fd5b7f4e487b7100000000000000000000000000000000000000000000000000000000600052602260045260246000fd5b7f4e487b7100000000000000000000000000000000000000000000000000000000600052604160045260246000fd5b6000601f19601f8301169050919050565b610c4081610a89565b8114610c4b57600080fd5b50565b610c5781610abb565b8114610c6257600080fd5b5056fea26469706673582212203da0476495935355b79fbb585097da8cf0e7bd0cd60367209acbac654a78ba5764736f6c63430008000033",
  "linkReferences": {},
  "deployedLinkReferences": {}
}